{
  "contractName": "Administrator",
  "abi": [
    {
      "constant": true,
      "inputs": [],
      "name": "ticket_price",
      "outputs": [
        {
          "name": "",
          "type": "uint256"
        }
      ],
      "payable": false,
      "stateMutability": "view",
      "type": "function"
    },
    {
      "constant": false,
      "inputs": [
        {
          "name": "_cancel",
          "type": "bool"
        }
      ],
      "name": "cancelEvent",
      "outputs": [
        {
          "name": "",
          "type": "uint256"
        }
      ],
      "payable": false,
      "stateMutability": "nonpayable",
      "type": "function"
    },
    {
      "constant": true,
      "inputs": [],
      "name": "party_time",
      "outputs": [
        {
          "name": "",
          "type": "uint256"
        }
      ],
      "payable": false,
      "stateMutability": "view",
      "type": "function"
    },
    {
      "constant": false,
      "inputs": [
        {
          "name": "max",
          "type": "uint256"
        },
        {
          "name": "min",
          "type": "uint256"
        },
        {
          "name": "price",
          "type": "uint256"
        },
        {
          "name": "time",
          "type": "uint256"
        }
      ],
      "name": "setMin",
      "outputs": [],
      "payable": false,
      "stateMutability": "nonpayable",
      "type": "function"
    },
    {
      "constant": true,
      "inputs": [
        {
          "name": "",
          "type": "uint256"
        }
      ],
      "name": "owner",
      "outputs": [
        {
          "name": "",
          "type": "address"
        },
        {
          "name": "guest_name",
          "type": "string"
        },
        {
          "name": "number_guests",
          "type": "uint256"
        },
        {
          "name": "purchased",
          "type": "bool"
        }
      ],
      "payable": false,
      "stateMutability": "view",
      "type": "function"
    },
    {
      "constant": false,
      "inputs": [
        {
          "name": "startTime",
          "type": "uint256"
        },
        {
          "name": "endTime",
          "type": "uint256"
        }
      ],
      "name": "setTime",
      "outputs": [
        {
          "name": "",
          "type": "uint256"
        }
      ],
      "payable": false,
      "stateMutability": "nonpayable",
      "type": "function"
    },
    {
      "constant": true,
      "inputs": [],
      "name": "max_headcount",
      "outputs": [
        {
          "name": "",
          "type": "uint256"
        }
      ],
      "payable": false,
      "stateMutability": "view",
      "type": "function"
    },
    {
      "constant": true,
      "inputs": [],
      "name": "min_headcount",
      "outputs": [
        {
          "name": "",
          "type": "uint256"
        }
      ],
      "payable": false,
      "stateMutability": "view",
      "type": "function"
    },
    {
      "constant": false,
      "inputs": [
        {
          "name": "newOwner",
          "type": "address"
        }
      ],
      "name": "transferOwnership",
      "outputs": [],
      "payable": false,
      "stateMutability": "nonpayable",
      "type": "function"
    },
    {
      "anonymous": false,
      "inputs": [
        {
          "indexed": false,
          "name": "_admin",
          "type": "address"
        },
        {
          "indexed": false,
          "name": "_message",
          "type": "string"
        }
      ],
      "name": "eventCreated",
      "type": "event"
    },
    {
      "anonymous": false,
      "inputs": [
        {
          "indexed": false,
          "name": "_admin",
          "type": "address"
        },
        {
          "indexed": false,
          "name": "_message",
          "type": "string"
        }
      ],
      "name": "eventCanceled",
      "type": "event"
    },
    {
      "anonymous": false,
      "inputs": [
        {
          "indexed": false,
          "name": "_message",
          "type": "string"
        }
      ],
      "name": "minMet",
      "type": "event"
    },
    {
      "anonymous": false,
      "inputs": [
        {
          "indexed": false,
          "name": "_message",
          "type": "string"
        }
      ],
      "name": "eventFull",
      "type": "event"
    }
  ],
  "bytecode": "0x6060604052336000806101000a81548173ffffffffffffffffffffffffffffffffffffffff021916908373ffffffffffffffffffffffffffffffffffffffff160217905550610484806100536000396000f300606060405260043610610099576000357c0100000000000000000000000000000000000000000000000000000000900463ffffffff16806319d41c691461009e57806322293675146100c75780632ba954b3146100ec5780635a265dfa146101155780638da5cb5b14610153578063a0355eca146101a8578063daba0721146101d4578063ed54e5a6146101fd578063f2fde38b14610226575b600080fd5b34156100a957600080fd5b6100b161025f565b6040518082815260200191505060405180910390f35b34156100d257600080fd5b6100ea60048080351515906020019091905050610265565b005b34156100f757600080fd5b6100ff6102c3565b6040518082815260200191505060405180910390f35b341561012057600080fd5b61015160048080359060200190919080359060200190919080359060200190919080359060200190919050506102c9565b005b341561015e57600080fd5b61016661032a565b604051808273ffffffffffffffffffffffffffffffffffffffff1673ffffffffffffffffffffffffffffffffffffffff16815260200191505060405180910390f35b34156101b357600080fd5b6101d2600480803590602001909190803590602001909190505061034f565b005b34156101df57600080fd5b6101e76103ae565b6040518082815260200191505060405180910390f35b341561020857600080fd5b6102106103b4565b6040518082815260200191505060405180910390f35b341561023157600080fd5b61025d600480803573ffffffffffffffffffffffffffffffffffffffff169060200190919050506103ba565b005b60045481565b6000809054906101000a900473ffffffffffffffffffffffffffffffffffffffff1673ffffffffffffffffffffffffffffffffffffffff163373ffffffffffffffffffffffffffffffffffffffff161415156102c057600080fd5b50565b60035481565b6000809054906101000a900473ffffffffffffffffffffffffffffffffffffffff1673ffffffffffffffffffffffffffffffffffffffff163373ffffffffffffffffffffffffffffffffffffffff1614151561032457600080fd5b50505050565b6000809054906101000a900473ffffffffffffffffffffffffffffffffffffffff1681565b6000809054906101000a900473ffffffffffffffffffffffffffffffffffffffff1673ffffffffffffffffffffffffffffffffffffffff163373ffffffffffffffffffffffffffffffffffffffff161415156103aa57600080fd5b5050565b60015481565b60025481565b6000809054906101000a900473ffffffffffffffffffffffffffffffffffffffff1673ffffffffffffffffffffffffffffffffffffffff163373ffffffffffffffffffffffffffffffffffffffff1614151561041557600080fd5b806000806101000a81548173ffffffffffffffffffffffffffffffffffffffff021916908373ffffffffffffffffffffffffffffffffffffffff160217905550505600a165627a7a72305820d1f955f9d7a035366ab16b4a509d5aba0fdb1af02e9c570077699bf7e2539cbb0029",
  "source": "pragma solidity ^0.4.2;\n\n import \"./owned.sol\";\n\ncontract Administrator is owned {\n\n\tuint public max_headcount; //max number of attendees \n\tuint public min_headcount; //min number of attendees\n\tuint public party_time; //stores time and date of the party\n\tuint public ticket_price; //ticket price\n\t\t\t\t\t\t\t  //in the future the price will be made dependent on the \n\t\t\t\t\t\t\t  //price o f party supplies\n\n\tstruct Admin { //creating struct that will hold info about party guests\n\n\t\taddress admin_hash; //what's their address? \n\t\tstring admin_name; //what's their name?\n\t}\n\n\n\tevent eventCreated(address _admin,  string _message); //event confiming event registration\n\tevent eventCanceled(address _admin, string _message); //event signaling if admin has \n\tevent minMet(string _message ); //signals to admin when min number of guests have registered\n\tevent eventFull(string _message); // signals when party has reach max capacity to admin\n\n\n\tfunction setMin (uint max, uint min, uint price, uint time) onlyOwner {\n\n\t}\n\n\tfunction setTime( uint startTime, uint endTime ) onlyOwner { \n\n\t}\n\n\tfunction cancelEvent( bool _cancel) onlyOwner {\n\n\t}\n\n\n}\n",
  "sourcePath": "/Users/emmaswarney/Desktop/rip_tilt/blockchain-bash/contracts/Administrator.sol",
  "compiler": {
    "name": "solc",
    "version": "0.4.18+commit.9cf6e910.Emscripten.clang"
  },
  "schemaVersion": "1.0.1",
  "updatedAt": "2018-07-22T18:43:59.062Z"
}