{
  "contractName": "SYDEToken",
  "abi": [
    {
      "constant": true,
      "inputs": [],
      "name": "num_tokens",
      "outputs": [
        {
          "name": "",
          "type": "uint256"
        }
      ],
      "payable": false,
      "stateMutability": "view",
      "type": "function"
    },
    {
      "constant": false,
      "inputs": [
        {
          "name": "_supply",
          "type": "uint256"
        }
      ],
      "name": "setSupply",
      "outputs": [
        {
          "name": "",
          "type": "uint256"
        }
      ],
      "payable": false,
      "stateMutability": "nonpayable",
      "type": "function"
    },
    {
      "constant": false,
      "inputs": [
        {
          "name": "initialSupply",
          "type": "uint256"
        }
      ],
      "name": "MyToken",
      "outputs": [],
      "payable": false,
      "stateMutability": "nonpayable",
      "type": "function"
    },
    {
      "constant": true,
      "inputs": [],
      "name": "owner",
      "outputs": [
        {
          "name": "",
          "type": "address"
        }
      ],
      "payable": false,
      "stateMutability": "view",
      "type": "function"
    },
    {
      "constant": false,
      "inputs": [
        {
          "name": "_to",
          "type": "address"
        },
        {
          "name": "_value",
          "type": "uint256"
        }
      ],
      "name": "transfer",
      "outputs": [],
      "payable": false,
      "stateMutability": "nonpayable",
      "type": "function"
    },
    {
      "constant": true,
      "inputs": [
        {
          "name": "",
          "type": "address"
        }
      ],
      "name": "tokens",
      "outputs": [
        {
          "name": "",
          "type": "uint256"
        }
      ],
      "payable": false,
      "stateMutability": "view",
      "type": "function"
    },
    {
      "constant": false,
      "inputs": [
        {
          "name": "newOwner",
          "type": "address"
        }
      ],
      "name": "transferOwnership",
      "outputs": [],
      "payable": false,
      "stateMutability": "nonpayable",
      "type": "function"
    }
  ],
  "bytecode": "0x606060405260c8600255336000806101000a81548173ffffffffffffffffffffffffffffffffffffffff021916908373ffffffffffffffffffffffffffffffffffffffff16021790555061056e806100586000396000f300606060405260043610610083576000357c0100000000000000000000000000000000000000000000000000000000900463ffffffff1680631a662f22146100885780633b4c4b25146100b15780637207c19f146100e85780638da5cb5b1461010b578063a9059cbb14610160578063e4860339146101a2578063f2fde38b146101ef575b600080fd5b341561009357600080fd5b61009b610228565b6040518082815260200191505060405180910390f35b34156100bc57600080fd5b6100d2600480803590602001909190505061022e565b6040518082815260200191505060405180910390f35b34156100f357600080fd5b610109600480803590602001909190505061029c565b005b341561011657600080fd5b61011e6102ec565b604051808273ffffffffffffffffffffffffffffffffffffffff1673ffffffffffffffffffffffffffffffffffffffff16815260200191505060405180910390f35b341561016b57600080fd5b6101a0600480803573ffffffffffffffffffffffffffffffffffffffff16906020019091908035906020019091905050610311565b005b34156101ad57600080fd5b6101d9600480803573ffffffffffffffffffffffffffffffffffffffff1690602001909190505061048c565b6040518082815260200191505060405180910390f35b34156101fa57600080fd5b610226600480803573ffffffffffffffffffffffffffffffffffffffff169060200190919050506104a4565b005b60025481565b60008060009054906101000a900473ffffffffffffffffffffffffffffffffffffffff1673ffffffffffffffffffffffffffffffffffffffff163373ffffffffffffffffffffffffffffffffffffffff1614151561028b57600080fd5b816002819055506002549050919050565b80600281905550600254600160003373ffffffffffffffffffffffffffffffffffffffff1673ffffffffffffffffffffffffffffffffffffffff1681526020019081526020016000208190555050565b6000809054906101000a900473ffffffffffffffffffffffffffffffffffffffff1681565b80600160003373ffffffffffffffffffffffffffffffffffffffff1673ffffffffffffffffffffffffffffffffffffffff168152602001908152602001600020541015151561035f57600080fd5b600160008373ffffffffffffffffffffffffffffffffffffffff1673ffffffffffffffffffffffffffffffffffffffff1681526020019081526020016000205481600160008573ffffffffffffffffffffffffffffffffffffffff1673ffffffffffffffffffffffffffffffffffffffff1681526020019081526020016000205401101515156103ee57600080fd5b80600160003373ffffffffffffffffffffffffffffffffffffffff1673ffffffffffffffffffffffffffffffffffffffff1681526020019081526020016000206000828254039250508190555080600160008473ffffffffffffffffffffffffffffffffffffffff1673ffffffffffffffffffffffffffffffffffffffff168152602001908152602001600020600082825401925050819055505050565b60016020528060005260406000206000915090505481565b6000809054906101000a900473ffffffffffffffffffffffffffffffffffffffff1673ffffffffffffffffffffffffffffffffffffffff163373ffffffffffffffffffffffffffffffffffffffff161415156104ff57600080fd5b806000806101000a81548173ffffffffffffffffffffffffffffffffffffffff021916908373ffffffffffffffffffffffffffffffffffffffff160217905550505600a165627a7a72305820f0d642ce4d32e25f9a5a0c21625a1e68d9518823e2a4f79b5c081437034146d00029",
  "source": "pragma solidity ^0.4.2;\n\nimport \"./owned.sol\";\n\ncontract SYDEToken is owned {\n    /* This creates an array with all balances */\n    mapping (address => uint256) public tokens;\n\n    uint256 public num_tokens = 200; //set default number of tokens to 200\n\n    /* Initializes contract with initial supply tokens to the creator of the contract */\n    function MyToken(uint256 initialSupply) {\n        num_tokens = initialSupply;   \n        tokens[msg.sender] = num_tokens;            // Give the creator all initial tokens\n    }\n\n    /* Send tokens */\n    function transfer(address _to, uint256 _value) {\n        require(tokens[msg.sender] >= _value);           // Check if the sender has enough\n        require(tokens[_to] + _value >= tokens[_to]); // Check for overflows\n        tokens[msg.sender] -= _value;                    // Subtract from the sender\n        tokens[_to] += _value;                           // Add the same to the recipient\n    }\n\n    function setSupply(uint256 _supply) onlyOwner returns (uint256) {\n        num_tokens = _supply;                 // function to allow admin to set the \n        return num_tokens;                    // inital supply of tokens\n    }\n}\n   ",
  "sourcePath": "/Users/emmaswarney/Desktop/rip_tilt/blockchain-bash/contracts/SYDEToken.sol",
  "compiler": {
    "name": "solc",
    "version": "0.4.18+commit.9cf6e910.Emscripten.clang"
  },
  "schemaVersion": "1.0.1",
  "updatedAt": "2018-01-07T20:33:36.970Z"
}