{
  "contractName": "Tickets",
  "abi": [
    {
      "constant": true,
      "inputs": [],
      "name": "ticket_price",
      "outputs": [
        {
          "name": "",
          "type": "uint256"
        }
      ],
      "payable": false,
      "stateMutability": "view",
      "type": "function"
    },
    {
      "constant": true,
      "inputs": [],
      "name": "party_time",
      "outputs": [
        {
          "name": "",
          "type": "uint256"
        }
      ],
      "payable": false,
      "stateMutability": "view",
      "type": "function"
    },
    {
      "constant": true,
      "inputs": [],
      "name": "owner",
      "outputs": [
        {
          "name": "",
          "type": "address"
        }
      ],
      "payable": false,
      "stateMutability": "view",
      "type": "function"
    },
    {
      "constant": true,
      "inputs": [
        {
          "name": "",
          "type": "uint256"
        }
      ],
      "name": "guest_list",
      "outputs": [
        {
          "name": "guest_hash",
          "type": "address"
        },
        {
          "name": "guest_name",
          "type": "string"
        },
        {
          "name": "number_guests",
          "type": "uint256"
        },
        {
          "name": "purchased",
          "type": "bool"
        }
      ],
      "payable": false,
      "stateMutability": "view",
      "type": "function"
    },
    {
      "constant": true,
      "inputs": [],
      "name": "partiers",
      "outputs": [
        {
          "name": "",
          "type": "uint256"
        }
      ],
      "payable": false,
      "stateMutability": "view",
      "type": "function"
    },
    {
      "constant": false,
      "inputs": [
        {
          "name": "number_guests",
          "type": "uint256"
        },
        {
          "name": "username",
          "type": "string"
        }
      ],
      "name": "buyTickets",
      "outputs": [
        {
          "name": "message",
          "type": "string"
        }
      ],
      "payable": false,
      "stateMutability": "nonpayable",
      "type": "function"
    },
    {
      "constant": true,
      "inputs": [],
      "name": "max_headcount",
      "outputs": [
        {
          "name": "",
          "type": "uint256"
        }
      ],
      "payable": false,
      "stateMutability": "view",
      "type": "function"
    },
    {
      "constant": true,
      "inputs": [],
      "name": "min_headcount",
      "outputs": [
        {
          "name": "",
          "type": "uint256"
        }
      ],
      "payable": false,
      "stateMutability": "view",
      "type": "function"
    },
    {
      "constant": false,
      "inputs": [
        {
          "name": "newOwner",
          "type": "address"
        }
      ],
      "name": "transferOwnership",
      "outputs": [],
      "payable": false,
      "stateMutability": "nonpayable",
      "type": "function"
    },
    {
      "inputs": [
        {
          "name": "max",
          "type": "uint256"
        },
        {
          "name": "min",
          "type": "uint256"
        },
        {
          "name": "price",
          "type": "uint256"
        },
        {
          "name": "time",
          "type": "uint256"
        }
      ],
      "payable": false,
      "stateMutability": "nonpayable",
      "type": "constructor"
    },
    {
      "anonymous": false,
      "inputs": [
        {
          "indexed": false,
          "name": "_guests",
          "type": "uint256"
        },
        {
          "indexed": false,
          "name": "_purchaser",
          "type": "address"
        },
        {
          "indexed": false,
          "name": "_name",
          "type": "string"
        }
      ],
      "name": "TicketsPurchased",
      "type": "event"
    },
    {
      "anonymous": false,
      "inputs": [
        {
          "indexed": false,
          "name": "_message",
          "type": "string"
        }
      ],
      "name": "PartyOn",
      "type": "event"
    },
    {
      "anonymous": false,
      "inputs": [
        {
          "indexed": false,
          "name": "_message",
          "type": "string"
        }
      ],
      "name": "FullHouse",
      "type": "event"
    }
  ],
  "bytecode": "0x6060604052341561000f57600080fd5b60405160808061085283398101604052808051906020019091908051906020019091908051906020019091908051906020019091905050336000806101000a81548173ffffffffffffffffffffffffffffffffffffffff021916908373ffffffffffffffffffffffffffffffffffffffff1602179055506000809054906101000a900473ffffffffffffffffffffffffffffffffffffffff1673ffffffffffffffffffffffffffffffffffffffff163373ffffffffffffffffffffffffffffffffffffffff161415156100e157600080fd5b8360028190555082600381905550816005819055508060048190555050505050610742806101106000396000f300606060405260043610610099576000357c0100000000000000000000000000000000000000000000000000000000900463ffffffff16806319d41c691461009e5780632ba954b3146100c75780638da5cb5b146100f0578063a861db5914610145578063bb7a6e0714610243578063d04cc6f51461026c578063daba07211461034b578063ed54e5a614610374578063f2fde38b1461039d575b600080fd5b34156100a957600080fd5b6100b16103d6565b6040518082815260200191505060405180910390f35b34156100d257600080fd5b6100da6103dc565b6040518082815260200191505060405180910390f35b34156100fb57600080fd5b6101036103e2565b604051808273ffffffffffffffffffffffffffffffffffffffff1673ffffffffffffffffffffffffffffffffffffffff16815260200191505060405180910390f35b341561015057600080fd5b6101666004808035906020019091905050610407565b604051808573ffffffffffffffffffffffffffffffffffffffff1673ffffffffffffffffffffffffffffffffffffffff16815260200180602001848152602001831515151581526020018281038252858181546001816001161561010002031660029004815260200191508054600181600116156101000203166002900480156102315780601f1061020657610100808354040283529160200191610231565b820191906000526020600020905b81548152906001019060200180831161021457829003601f168201915b50509550505050505060405180910390f35b341561024e57600080fd5b610256610472565b6040518082815260200191505060405180910390f35b341561027757600080fd5b6102d0600480803590602001909190803590602001908201803590602001908080601f01602080910402602001604051908101604052809392919081815260200183838082843782019150505050505091905050610478565b6040518080602001828103825283818151815260200191508051906020019080838360005b838110156103105780820151818401526020810190506102f5565b50505050905090810190601f16801561033d5780820380516001836020036101000a031916815260200191505b509250505060405180910390f35b341561035657600080fd5b61035e610658565b6040518082815260200191505060405180910390f35b341561037f57600080fd5b61038761065e565b6040518082815260200191505060405180910390f35b34156103a857600080fd5b6103d4600480803573ffffffffffffffffffffffffffffffffffffffff16906020019091905050610664565b005b60055481565b60045481565b6000809054906101000a900473ffffffffffffffffffffffffffffffffffffffff1681565b60068181548110151561041657fe5b90600052602060002090600402016000915090508060000160009054906101000a900473ffffffffffffffffffffffffffffffffffffffff169080600101908060020154908060030160009054906101000a900460ff16905084565b60015481565b610480610702565b600083600154016002540310156104ce576040805190810160405280601e81526020017f536f7272792c206e6f7420656e6f756768207469636b657473206c65667400008152509050610652565b82600160008282540192505081905550600354600154141561057d577fba77f0b09b3881c2ae467f6567fcbff13fb0ca81fa7aab02ca96b19caa3e37fc6040518080602001828103825260298152602001807f52656163686564206d696e696d756d2068656164636f756e742e2054696d652081526020017f746f20506172747921000000000000000000000000000000000000000000000081525060400191505060405180910390a1610619565b6002546001541415610618577f4f41c48062d2197599e0ad388a82b3202b856e2af0f1345bf0f04408d4186a1c6040518080602001828103825260358152602001807f5469636b65747320617265206e6f7720736f6c64206f75742e2050726570617281526020017f6520666f722061206d616a6f722072616e6765722e000000000000000000000081525060400191505060405180910390a15b5b6040805190810160405280601181526020017f5469636b6574732070757263686173656400000000000000000000000000000081525090505b92915050565b60025481565b60035481565b6000809054906101000a900473ffffffffffffffffffffffffffffffffffffffff1673ffffffffffffffffffffffffffffffffffffffff163373ffffffffffffffffffffffffffffffffffffffff161415156106bf57600080fd5b806000806101000a81548173ffffffffffffffffffffffffffffffffffffffff021916908373ffffffffffffffffffffffffffffffffffffffff16021790555050565b6020604051908101604052806000815250905600a165627a7a72305820901203407708da098194830dad7ed0877c09672a61e0b22309febc11acc207680029",
  "source": " pragma solidity ^0.4.2;\n\n import \"./owned.sol\";\n\ncontract Tickets is owned {\n\nuint public partiers; //current number of people coming to the party\nuint public max_headcount; //max number of attendees \nuint public min_headcount; //min number of attendees\nuint public party_time; //stores time and date of the party\nuint public ticket_price; //ticket price\n\t\t\t\t\t\t  //in the future the price will be made dependent on the \n\t\t\t\t\t\t  //price of party supplies\n\nstruct Guests { //creating struct that will hold info about party guests\n\n\taddress guest_hash; //what's their address? \n\tstring guest_name; //what's their name?\n\tuint number_guests; //how many people are they bringing?\n\tbool purchased; //have they already purchased a ticket??\n}\n\nGuests [] public guest_list; //array of Guests objects \n\n\nevent TicketsPurchased(uint _guests, address _purchaser,  string _name); //event to signal ticket purchase\nevent PartyOn(string _message); //signals when min headcount has been met, let's Party On! \nevent FullHouse(string _message); // signals when tickets have been sold out (lit) \n\n\nfunction Tickets (uint max, uint min, uint price, uint time) onlyOwner {\n\tmax_headcount = max; \n\tmin_headcount = min; \n\tticket_price = price; \n\tparty_time = time; \n}\n\nfunction buyTickets (uint number_guests, string username) returns (string message) { // in future modifier will be added to make sure same address isn't buying another ticket\n\tif (max_headcount - (partiers + number_guests) < 0){\n\t\treturn (\"Sorry, not enough tickets left\"); \n\t}\n\n\telse {\n\n\t\t\tpartiers += number_guests; \n\t\t\t\tif (partiers == min_headcount){\n\t\t\t\t\t PartyOn(\"Reached minimum headcount. Time to Party!\"); \n\t\t\t\t}\n\n\t\t\t\telse if (partiers == max_headcount){\n\t\t\t\t\tFullHouse(\"Tickets are now sold out. Prepare for a major ranger.\"); \n\t\t\t\t}\n\n\treturn (\"Tickets purchased\"); \n\n\t}\n}\n\n\n\n}\n\n",
  "sourcePath": "/Users/emmaswarney/Desktop/rip_tilt/blockchain-bash/contracts/Tickets.sol",
  "compiler": {
    "name": "solc",
    "version": "0.4.18+commit.9cf6e910.Emscripten.clang"
  },
  "schemaVersion": "1.0.1",
  "updatedAt": "2017-12-11T00:07:53.230Z"
}