{
  "contractName": "Tickets",
  "abi": [
    {
      "constant": true,
      "inputs": [],
      "name": "ticket_price",
      "outputs": [
        {
          "name": "",
          "type": "uint256"
        }
      ],
      "payable": false,
      "stateMutability": "view",
      "type": "function"
    },
    {
      "constant": true,
      "inputs": [],
      "name": "party_time",
      "outputs": [
        {
          "name": "",
          "type": "uint256"
        }
      ],
      "payable": false,
      "stateMutability": "view",
      "type": "function"
    },
    {
      "constant": true,
      "inputs": [],
      "name": "owner",
      "outputs": [
        {
          "name": "",
          "type": "address"
        }
      ],
      "payable": false,
      "stateMutability": "view",
      "type": "function"
    },
    {
      "constant": true,
      "inputs": [
        {
          "name": "",
          "type": "uint256"
        }
      ],
      "name": "guest_list",
      "outputs": [
        {
          "name": "guest_hash",
          "type": "address"
        },
        {
          "name": "guest_name",
          "type": "string"
        },
        {
          "name": "number_guests",
          "type": "uint256"
        },
        {
          "name": "purchased",
          "type": "bool"
        }
      ],
      "payable": false,
      "stateMutability": "view",
      "type": "function"
    },
    {
      "constant": true,
      "inputs": [],
      "name": "partiers",
      "outputs": [
        {
          "name": "",
          "type": "uint256"
        }
      ],
      "payable": false,
      "stateMutability": "view",
      "type": "function"
    },
    {
      "constant": true,
      "inputs": [],
      "name": "max_headcount",
      "outputs": [
        {
          "name": "",
          "type": "uint256"
        }
      ],
      "payable": false,
      "stateMutability": "view",
      "type": "function"
    },
    {
      "constant": true,
      "inputs": [
        {
          "name": "newOwner",
          "type": "address"
        }
      ],
      "name": "min_headcount",
      "outputs": [
        {
          "name": "",
          "type": "uint256"
        }
      ],
      "payable": false,
      "stateMutability": "view",
      "type": "function"
    },
    {
      "constant": false,
      "inputs": [
        {
          "name": "newOwner",
          "type": "address"
        }
      ],
      "name": "transferOwnership",
      "outputs": [],
      "payable": false,
      "stateMutability": "nonpayable",
      "type": "function"
    },
    {
      "anonymous": false,
      "inputs": [
        {
          "indexed": false,
          "name": "max",
          "type": "uint256"
        },
        {
          "indexed": false,
          "name": "min",
          "type": "uint256"
        },
        {
          "indexed": false,
          "name": "price",
          "type": "uint256"
        },
        {
          "name": "time",
          "type": "uint256"
        }
      ],
      "name": "TicketsPurchased",
      "type": "constructor",
      "payable": false,
      "stateMutability": "nonpayable"
    },
    {
      "anonymous": false,
      "inputs": [
        {
          "indexed": false,
          "name": "_guests",
          "type": "uint256"
        },
        {
          "indexed": false,
          "name": "_purchaser",
          "type": "address"
        },
        {
          "indexed": false,
          "name": "_name",
          "type": "string"
        }
      ],
      "name": "TicketsPurchased",
      "type": "event"
    },
    {
      "anonymous": false,
      "inputs": [
        {
          "indexed": false,
          "name": "_message",
          "type": "string"
        }
      ],
      "name": "PartyOn",
      "type": "event"
    },
    {
      "anonymous": false,
      "inputs": [
        {
          "indexed": false,
          "name": "_message",
          "type": "string"
        }
      ],
      "name": "FullHouse",
      "type": "event"
    }
  ],
  "bytecode": "0x6060604052341561000f57600080fd5b60405160808061057483398101604052808051906020019091908051906020019091908051906020019091908051906020019091905050336000806101000a81548173ffffffffffffffffffffffffffffffffffffffff021916908373ffffffffffffffffffffffffffffffffffffffff1602179055506000809054906101000a900473ffffffffffffffffffffffffffffffffffffffff1673ffffffffffffffffffffffffffffffffffffffff163373ffffffffffffffffffffffffffffffffffffffff161415156100e157600080fd5b8360028190555082600381905550816005819055508060048190555050505050610464806101106000396000f30060606040526004361061008e576000357c0100000000000000000000000000000000000000000000000000000000900463ffffffff16806319d41c69146100935780632ba954b3146100bc5780638da5cb5b146100e5578063a861db591461013a578063bb7a6e0714610238578063daba072114610261578063ed54e5a61461028a578063f2fde38b146102b3575b600080fd5b341561009e57600080fd5b6100a66102ec565b6040518082815260200191505060405180910390f35b34156100c757600080fd5b6100cf6102f2565b6040518082815260200191505060405180910390f35b34156100f057600080fd5b6100f86102f8565b604051808273ffffffffffffffffffffffffffffffffffffffff1673ffffffffffffffffffffffffffffffffffffffff16815260200191505060405180910390f35b341561014557600080fd5b61015b600480803590602001909190505061031d565b604051808573ffffffffffffffffffffffffffffffffffffffff1673ffffffffffffffffffffffffffffffffffffffff16815260200180602001848152602001831515151581526020018281038252858181546001816001161561010002031660029004815260200191508054600181600116156101000203166002900480156102265780601f106101fb57610100808354040283529160200191610226565b820191906000526020600020905b81548152906001019060200180831161020957829003601f168201915b50509550505050505060405180910390f35b341561024357600080fd5b61024b610388565b6040518082815260200191505060405180910390f35b341561026c57600080fd5b61027461038e565b6040518082815260200191505060405180910390f35b341561029557600080fd5b61029d610394565b6040518082815260200191505060405180910390f35b34156102be57600080fd5b6102ea600480803573ffffffffffffffffffffffffffffffffffffffff1690602001909190505061039a565b005b60055481565b60045481565b6000809054906101000a900473ffffffffffffffffffffffffffffffffffffffff1681565b60068181548110151561032c57fe5b90600052602060002090600402016000915090508060000160009054906101000a900473ffffffffffffffffffffffffffffffffffffffff169080600101908060020154908060030160009054906101000a900460ff16905084565b60015481565b60025481565b60035481565b6000809054906101000a900473ffffffffffffffffffffffffffffffffffffffff1673ffffffffffffffffffffffffffffffffffffffff163373ffffffffffffffffffffffffffffffffffffffff161415156103f557600080fd5b806000806101000a81548173ffffffffffffffffffffffffffffffffffffffff021916908373ffffffffffffffffffffffffffffffffffffffff160217905550505600a165627a7a723058208ee3c662605d01d4c0e97ca506f0ff5878ec89ad7606396bb5d678eef6519e770029",
  "source": "pragma solidity ^0.4.2;\n\n import \"./owned.sol\";\n\ncontract Tickets is owned {\n\nuint public partiers; //current number of people coming to the party\nuint public max_headcount; //max number of attendees \nuint public min_headcount; //min number of attendees\nuint public party_time; //stores time and date of the party\nuint public ticket_price; //ticket price\n\t\t\t\t\t\t  //in the future the price will be made dependent on the \n\t\t\t\t\t\t  //price of party supplies\n\nstruct Guests { //creating struct that will hold info about party guests\n\n\taddress guest_hash; //what's their address? \n\tstring guest_name; //what's their name?\n\tuint number_guests; //how many people are they bringing?\n\tbool purchased; //have they already purchased a ticket??\n}\n\nGuests [] public guest_list; //array of Guests objects \n\n\nevent TicketsPurchased(uint _guests, address _purchaser,  string _name); //event to signal ticket purchase\nevent PartyOn(string _message); //signals when min headcount has been met, let's Party On! \nevent FullHouse(string _message); // signals when tickets have been sold out (lit) \n\n\nfunction Tickets (uint max, uint min, uint price, uint time) onlyOwner {\n\tmax_headcount = max; \n\tmin_headcount = min; \n\tticket_price = price; \n\tparty_time = time; \n}\n\n// function buyTickets (Guests guest) returns (string message) { // in future modifier will be added to make sure same address isn't buying another ticket\n// \tif (max_headcount - (partiers + guest.number_guests) < 0){\n// \t \treturn (\"Sorry, not enough tickets left\"); \n// \t}\n\n// \telse {\n// \t \t\tpartiers += guest.number_guests; \n// \t \t\t\tif (partiers == min_headcount){\n// \t \t\t\t\t PartyOn(\"Reached minimum headcount. Time to Party!\"); \n// \t \t\t\t}\n\n// \t \t\t\telse if (partiers == max_headcount){\n// \t \t\t\t\tFullHouse(\"Tickets are now sold out. Prepare for a major ranger.\"); \n// \t \t\t\t}\n// \t \t}\t\t\n\n// \treturn (\"Tickets purchased\"); \n\n// \t}\n// \treturn (\"hello, testing\"); \n// }\n\n}\n",
  "sourcePath": "/Users/emmaswarney/Desktop/rip_tilt/blockchain-bash/contracts/Tickets.sol",
  "compiler": {
    "name": "solc",
    "version": "0.4.18+commit.9cf6e910.Emscripten.clang"
  },
  "schemaVersion": "1.0.1",
  "updatedAt": "2018-01-07T20:45:29.521Z"
}